BCI0048903312020121156                                                                                                                                                                                  HDT20200331100820500BCIDAHO                  00489INGENIORX                0000001T10                                                                                                                                                                                                                                                                                                                                                                                                                                                                                                                                                                                                                                                                                                                                                                                                                                                                                                                                                                                                                                                                                                                                                                                                                                                                                                                                                                                                                                                                       
BCI0048903312020121156                                                                                                                                                                                  TDDQ1020500BCIDAHO                  00489INGENIORX                0000    01700                    202003161211561620200316                                  2007612a3bd5858c969420c977249f6efc15def           9  00                                                   0000000000000000 971114634022007612                                                                                  LWBEDTWNO           10035783       TG4OI                     YPK2M                               196911291                                                             INGENIORXBCI00489                                                                                        6DV5HNADU69                                                                                                      02                      0410000079386+0000000000+0000000000+0510000079386+0000000000+0000000000+   0000000000 0000000000 0000000000    0000000000 0000000000 0000000000
BCI0048903312020121156                                                                                                                                                                                  DTDQ1020500BCIDAHO                  00489INGENIORX                0000    01700                    202003161211561620200316                                  2007612c7aaf5ea685e4df4932810280457317b           9  00                                                   0000000000000000 971293259012007612                                                                                  B26DG3GO7           10035783       JH2W2                     9V6VH                               197114141                                                             INGENIORXBCI00489                                                                                        SVG3NEYUW3R                                                                                                      02                      0410000016768+0000000000+0000000000+0510000016768+0000000000+0000000000+   0000000000 0000000000 0000000000    0000000000 0000000000 0000000000
BCI0048903312020121156                                                                                                                                                                                  DT  1020500BCIDAHO                  00489INGENIORX                0000    01700                    202003161211561620200316                                  2007612fcc989af039e4d1488834aa0c09317a7           9  00                                                   0000000000000000 971197600042007612                                                                                  GZMV8KYVW           10035783       QLNYUGS                   GLLRHN                              196105271                                                             INGENIORXBCI00489                                                                                        E5YVN6N9QAB                                                                                                      02                      0410000001478+0000000000+0000000000+0510000001478+0000000000+0000000000+   0000000000 0000000000 0000000000    0000000000 0000000000 0000000000
BCI0048903312020121156                                                                                                                                                                                  DTDQ1020500BCIDAHO                                                0000    01700                    202003161211561620200316                                  20076125f0788adb1ac46efab6f3cdec1bf32f6           9  00                                                   0000000000000000 971102023012007612                                                                                  424NU5DW6           10035783       TOA1G                     NI49V                               198511081                                                             INGENIORXBCI00489                                                                                        RR6VGQZNVEQ                                                                                                      02                      0410000031263+0000000000+0000000000+0510000031263+0000000000+0000000000+   0000000000 0000000000 0000000000    0000000000 0000000000 0000000000
BCI0048903312020121156                                                                                                                                                                                  DTDQ10                              00489INGENIORX                0000    01700                    202003161211561620200316                                  200761254629040d58c44ebae857c38a4549437           9  00                                                   0000000000000000 970386789012007612                                                                                  0VW7PNNFL           10090008       ULAFRH                    QIBY                                196002121                                                             INGENIORXBCI00489                                                                                        9IDQJ2QCTI3                                                                                                      02                      0410000007000+0000000000+0000000000+0510000007000+0000000000+0000000000+   0000000000 0000000000 0000000000    0000000000 0000000000 0000000000
BCI0048903312020121156                                                                                                                                                                                  DTDQ1020500BCIDAHO                  00489INGENIORX                0000    01700                    202003161211561620200316                                  20076127c6c90e1d64c4734a2c0be4c8e1b9e1d           9  00                                                   0000000000000000 971610415022007612                                                                                  H5PYDD8TO           10036230       BTBX755NOK                AASBP                               198510071                                                             INGENIORXBCI00489                                                                                        MXHUNFW72KU                                                                                                      02                      0410000012518+0000000000+0000000000+0510000012518+0000000000+0000000000+   0000000000 0000000000 0000000000    0000000000 0000000000 0000000000
BCI0048903312020121156                                                                                                                                                                                  DTDQ1020500BCIDAHO                  00489INGENIORX                0000    01700                    202003161211561620200316                                  2007612b55da12d7dca4ef78cda7ba5a344e042           9  00                                                   0000000000000000 971610422062007612                                                                                  5YYLQHVHJ           10036230       R7QGCU1A                  JM4PCE                              198606071                                                             INGENIORXBCI00489                                                                                        PGGOPTF676P                                                                                                      02                      0410000012987-0000000000+0000000000+0510000012987-0000000000+0000000000+   0000000000 0000000000 0000000000    0000000000 0000000000 0000000000
BCI0048903312020121156                                                                                                                                                                                  DTDQ1020500BCIDAHO                  00489INGENIORX                0000    01700                    202003161211561620200316                                  20076127c6c90e1d64c4734a2c0be4c8e1b9e1d           9  00                                                   0000000000000000 970218337022007612                                                                                  RSSFY7YA0           10036230       YITFNX9                   SZA4DKHP                            197211151                                                             INGENIORXBCI00489                                                                                        KOSUF3C7GP7                                                                                                      02                      0410000012518+0000000000+0000000000+0510000012518+0000000000+0000000000+   0000000000 0000000000 0000000000    0000000000 0000000000 0000000000
BCI0048903312020121156                                                                                                                                                                                  DTDQ1020500BCIDAHO                  00489INGENIORX                0000    01700                    202003161211561620200316                                  20076127c6c90e1d64c4734a2c0be4c8e1b9e1d           9  00                                                   0000000000000000 970218337022007612                                                                                  RSSFY7YA0           10036230       YITFNX9                   U9EP                                200409241                                                             INGENIORXBCI00489                                                                                        9VBL9NWNBW6                                                                                                      02                      0410000012518+0000000000+0000000000+0510000012518+0000000000+0000000000+   0000000000 0000000000 0000000000    0000000000 0000000000 0000000000
BCI0048903312020121156                                                                                                                                                                                  TR00000010000000009                                                                                                                                                                                                                                                                                                                                                                                                                                                                                                                                                                                                                                                                                                                                                                                                                                                                                                                                                                                                                                                                                                                                                                                                                                                                                                                                                                                                                                                                                                                                         
